:04000000F6EF05F022
:10060000005749544820414D4954275320424147FF
:100610002020004D4554414C204953204445544529
:100620004354454400574954482053414E4B455488
:10063000275320424147002020202054455354494D
:100640004E47202020202000202020205448414ECA
:100650004B20594F55202020002020205649534937
:100660005420414741494E202000202020414D493F
:100670005420205041574152202000202053414E09
:100680004B45542050415741522020007572206341
:10069000617264204E6F2E2069733A2000434845F2
:1006A000434B494E472053595354454D2000204D4C
:1006B0004554414C204445544543544F522000502A
:1006C0006C61636520596F757220436172643A00F2
:1006D000524649442042415345204C5547414745E5
:1006E00000009498949A000E936E949C948E95803A
:1006F0009592839219EC05F003EC06F0800E54EC11
:1007000005F0000E126E140E116EC6EC05F0060E0A
:100710001A6ED00E196EE1EC05F0C00E54EC05F027
:10072000000E126E140E116EC6EC05F0060E1A6E57
:100730009D0E196EE1EC05F0000E126E140E116E96
:10074000C6EC05F0800E54EC05F08392010E54ECDB
:1007500005F0060E1A6EBF0E196EE1EC05F0C00E24
:1007600054EC05F0000E0F6E000E0E6E0F50800A56
:10077000800F0C0ED8B40E5CD8B00CD0010E0E2435
:10078000D96E000E0F20DA6E0CEC06F0DF6E0E4A0A
:100790000F2AECD7010E0E24D96E000E0F20DA6E50
:1007A000000EDF6E010E54EC05F0800E54EC05F0E7
:1007B000060E1A6E8C0E196EE1EC05F0C00E54ECAC
:1007C00005F0000E0F6E000E0E6E0F50800A800FA7
:1007D0000C0ED8B40E5CD8B00CD0010E0E24D96E1D
:1007E000000E0F20DA6EDF508DEC05F00E4A0F2A56
:1007F000ECD7000E126EC80E116EC6EC05F00C5050
:10080000370AD8A489D0010E54EC05F0800E54ECC0
:1008100005F0060E1A6E7B0E196EE1EC05F0010E66
:10082000126EF40E116EC6EC05F051D08392000EDC
:100830000F6E000E0E6E000E0F6E000E0E6E0F503D
:10084000800A800F030ED8B40E5CD8B01ED0010E03
:1008500054EC05F0800E54EC05F0060E1A6EAE0E48
:10086000196EE1EC05F0C00E54EC05F0060E1A6EA0
:10087000370E196EE1EC05F0010E126EF40E116EDA
:10088000C6EC05F00E4A0F2ADAD7010E54EC05F03B
:10089000800E54EC05F0060E1A6E480E196EE1EC4F
:1008A00005F0000E126E640E116EC6EC05F0C00E5F
:1008B00054EC05F0060E1A6E590E196EE1EC05F0B7
:1008C000030E126EE80E116EC6EC05F03ED783B033
:1008D000ADD78382010E54EC05F0800E54EC05F088
:1008E000060E1A6E130E196EE1EC05F0010E126E73
:1008F000F40E116EC6EC05F0C00E54EC05F0060EB9
:100900001A6E250E196EE1EC05F0030E126EE80E5C
:10091000116EC6EC05F019D70C50360AD8A415D7BD
:10092000010E54EC05F0800E54EC05F0060E1A6E24
:100930006A0E196EE1EC05F0010E126EF40E116EE6
:10094000C6EC05F051D08392000E0F6E000E0E6EB5
:10095000000E0F6E000E0E6E0F50800A800F030EF9
:10096000D8B40E5CD8B01ED0010E54EC05F0800E49
:1009700054EC05F0060E1A6EAE0E196EE1EC05F0A1
:10098000C00E54EC05F0060E1A6E370E196EE1EC2F
:1009900005F0010E126EF40E116EC6EC05F00E4A53
:1009A0000F2ADAD7010E54EC05F0800E54EC05F056
:1009B000060E1A6E480E196EE1EC05F0000E126E6E
:1009C000640E116EC6EC05F0C00E54EC05F0060E78
:1009D0001A6E590E196EE1EC05F0030E126EE80E58
:1009E000116EC6EC05F0B1D683B0ADD78382010E8F
:1009F00054EC05F0800E54EC05F0060E1A6E130E42
:100A0000196EE1EC05F0010E126EF40E116EC6ECDB
:100A100005F0C00E54EC05F0060E1A6E010E196EAC
:100A2000E1EC05F0030E126EE80E116EC6EC05F057
:100A30008CD6000E936E9498949A330E54EC05F075
:100A4000000E126E140E116EC6EC05F0320E54EC50
:100A500005F0000E126E140E116EC6EC05F0280E95
:100A600054EC05F0000E126E140E116EC6EC05F07B
:100A70000E0E54EC05F0000E126E140E116EC6EC44
:100A800005F0060E54EC05F0000E126E140E116EF9
:100A9000C6EC05F0010E54EC05F0000E126E140EBB
:100AA000116EC6EC05F01200E8CF18F08298000E27
:100AB000126E140E116EC6EC05F0828A000E126ED4
:100AC000140E116EC6EC05F018C017F0173A0F0E91
:100AD00017160F0E17168150F00B1710816E829AA1
:100AE000000E126E140E116EC6EC05F0828A000E16
:100AF000126E140E116EC6EC05F018C017F00F0E32
:100B000017168150F00B1710816E829A000E126E2C
:100B1000140E116EC6EC05F01200E8CF18F08288B2
:100B2000000E126E140E116EC6EC05F0828A000ED5
:100B3000126E140E116EC6EC05F018C017F0173ABD
:100B40000F0E17160F0E17168150F00B1710816E2F
:100B5000829A000E126E140E116EC6EC05F0828A97
:100B6000000E126E140E116EC6EC05F018C017F0D0
:100B70000F0E17168150F00B1710816E829A000E1F
:100B8000126E140E116EC6EC05F01200000E146EFB
:100B9000000E136E0FD0000E166E000E156E900E26
:100BA000155C010E1658D8B003D0154A162AF7D78F
:100BB000134A142A1150135C12501458D8B0120062
:100BC000EAD70AD019C0F6FF1AC0F7FF0800F5509F
:100BD0008DEC05F0194A1A2A19C0F6FF1AC0F7FF62
:100BE0000800F5500009D8B41200ECD700EE01F06F
:100BF000100EEE6AE806FDE1000EF86E060EF76EC6
:100C0000000171EF03F0949C948E810EAF6E240E60
:100C1000AC6E900EAB6E12009EAAFED7AECF10F057
:060C20009E9A1050120024
:020000040020DA
:08000000FFFFFFFFFFFFFFFF00
:020000040030CA
:0E000000FF021D1EFF8381FF0FC00FE00F40A7
:00000001FF
